:020000040800F2
:10000000B004002001010008E70E0008910D00086F
:10001000E50E00086D0100080D1100080000000049
:10002000000000000000000000000000EB0E0008CF
:100030006F01000800000000E90E0008ED0E000846
:100040001B0100081B0100081B0100081B01000820
:100050001B0100081B0100081B0100081B01000810
:100060001B0100081B0100081B0100081B01000800
:100070001B0100081B0100081B0100081B010008F0
:100080001B0100081B0100081B0100081B010008E0
:100090001B0100081B0100081B0100081B010008D0
:1000A0001B0100081B0100081B0100081B010008C0
:1000B0001B0100081B0100081B0100081B010008B0
:1000C0001B0100081B0100081B0100081B010008A0
:1000D0001B0100081B0100081B0100081B01000890
:1000E0001B0100081B0100081B010008DFF80CD0F1
:1000F00000F02AF8004800474D110008B004002025
:100100000648804706480047FEE7FEE7FEE7FEE7B1
:10011000FEE7FEE7FEE7FEE7FEE7FEE74F0F00081B
:10012000ED000008D2B201E000F8012B491EFBD21D
:1001300070470022F6E710B513460A4604461946F2
:10014000FFF7F0FF204610BD064C074D06E0E068C3
:1001500040F0010394E8070098471034AC42F6D30E
:10016000FFF7C8FF8C110008AC110008FEE77047CC
:1001700072B6FEE72DE9F84FDFF8B8910024A9F137
:10018000040B23460F2709F1040AABF1040EC9E062
:100190000125A5402A40AA427DD1674ED1F804C06E
:1001A000ACEB0608B44532D014DCBCF1030F3AD0F6
:1001B00009DCBCF1000F2AD0BCF1010F1CD0BCF14E
:1001C000020F31D11DE0BCF1110F17D0BCF1120F9D
:1001D0002AD119E0B8F5881F19D006DCB8F5803FA0
:1001E00015D0B8F5801F1FD111E0B8F5001F0ED053
:1001F000B8F5041F18D10AE0CB6815E0CB681B1DC9
:1002000012E0CB6808330FE0CB680C330CE08B684E
:100210002BB1012B4FF0080303D0456104E0042308
:1002200002E0056100E00023FF2A01D8064601E054
:1002300000F104064FEA840501D9A5F12005D6F89E
:10024000008007FA05FC28EA0C0803FA05F548EADD
:100250000508C6F800804D68ED0062D5374DAE69DF
:1002600046F00106AE61AD6924F0030605F0010514
:100270000095334D06EB050CDCF80850A607360F49
:1002800007FA06F825EA0805DFF8B880404503D1EB
:100290004FF0000817E044E0DFF8AC80404502D1A1
:1002A0004FF001080FE0DFF8A480404502D14FF085
:1002B000020808E0DFF89880404502D14FF00308BB
:1002C00001E04FF0040808FA06F848EA0508CCF8FF
:1002D00008804D68D9F80060ED024D4601D51643FF
:1002E00000E096432E604D68DAF80060AD02554696
:1002F00001D5164300E096432E604D68DBF80060A0
:10030000AD035D4601D5164300E096432E604D686F
:10031000DEF80060ED03754601D5164300E0964314
:100320002E60641C0D682A46E5407FF431AFBDE8BD
:10033000F88F000008040140000011100010024076
:100340000000014000080140000C01400010014085
:100350000014014001488068704700000000002040
:1003600070B5040025D094F83D00002520B984F82C
:100370003C50204600F0B8F8242084F83D00206866
:10038000016821F0010101602068016841F4004129
:1003900001602068016821F40041016000F0F2F979
:1003A0004D4A6168914201D84C4900E04C4988426D
:1003B00001D2012070BD4B492368B0FBF1F15E68AA
:1003C00026F03F060E435E606368934206D94FF401
:1003D000967359434FF47A73B1FBF3F12368491CC8
:1003E0001E6A26F03F06314319626168914210D8B7
:1003F0004900401EB0FBF1F2521CC2F30B02042A6A
:1004000001D2042022E0B0FBF1F0401CC0F30B004D
:100410001CE0A268F2B301EBC10303EB0116431E1B
:10042000B3FBF6F35B1C43F480431B0549D092B346
:1004300001EBC10202EB0111401EB0FBF1F0401CC8
:10044000C0F30B0040F4804040F400402168CA69CA
:100450004CF6FF739A431043C861D4E90710014377
:100460002068026822F0C00211430160D4E9030150
:1004700001432068826848F2FF339A431143816048
:10048000D4E9050108432168CA6822F0FF0210433D
:10049000C86001E00EE016E02068016841F001014B
:1004A00001602564202084F83D00256384F83E50D7
:1004B000002070BD01EB4106431EB3FBF6F35B1C4D
:1004C000B3E70120C2E701EB4101401EB0FBF1F0B0
:1004D000401CC0F30B00B7E7A086010080841E001B
:1004E00000093D0040420F0010B586B00021009188
:1004F00001910291039100680F4988421AD10F4C73
:10050000A06940F00800A061A069694600F00800F9
:100510000490C0200090122001900320039008480E
:10052000FFF728FEE06940F40010E061E06900F4A4
:100530000010049006B010BD0054004000100240AE
:10054000000C0140024881680278114481607047C4
:1005500000000020074810B5016841F0100101605B
:10056000032000F067F80F2000F006F800F024F8F0
:10057000002010BD0020024070B50D4D04464FF420
:100580007A712878B1FBF0F00A490968B1FBF0F004
:1005900000F0BEFA48B9102C07D200222146501EA6
:1005A00000F028F800206C6070BD012070BD0000D4
:1005B000000000200C0000200C4808B5816941F0C3
:1005C00001018161816901F001010091C16941F07E
:1005D0008051C161C06900F08050009004484168BA
:1005E00021F0E06141F08061416008BD00100240EF
:1005F00000000140F0B40E4B1B680C46C3F302230D
:10060000C3F10705042D00D90425191D072901D2BE
:10061000002300E0DB1E012606FA05F1491E2140F9
:1006200099409E40761E16403143F0BC00F06FBDED
:100630000CED00E0064900F0070208684FF6FF03E2
:10064000184040EA0220034A104308607047000047
:100650000CED00E00000FA052DE9F0470F4605001B
:1006600061D0434E306800F00700B84209D23068CC
:1006700020F0070038433060306800F00700B842CF
:1006800051D128683B4C810712D5400703D56068DB
:1006900040F4E06060602878000703D5606840F4AB
:1006A000605060606068A96820F0F00008436060F6
:1006B0002878C00728D06868012810D0216802284F
:1006C00010D0890700292EDA616821F00301014367
:1006D0006160FFF73FFE804641F288390DE02168F6
:1006E0008903EFE78901EDE7FFF734FEA0EB08018E
:1006F000494502D90320BDE8F0876068696800F0C9
:100700000C00B0EB810FEFD1306800F00700B84269
:100710000BD9306820F0070038433060306800F0B3
:100720000700B84201D00120E5E72878400705D549
:100730006068E96820F4E06008436060287800079A
:1007400006D56068296920F4605040EAC100606005
:1007500000F028F86168084AC1F30311515CC840F1
:100760000649086006480068FFF706FF0020C2E758
:100770000020024000100240741100080C0000200C
:10078000040000200448054900684968044AC1F390
:100790000221515CC84070470C000020001002404C
:1007A000841100080E4A51680E4801F00C03042B16
:1007B00011D0082B0FD10C48C1F38343C903C05C8F
:1007C0000AD55168084AC1F34041921E515C054A5E
:1007D0005043B0FBF1F070470449484370470000B4
:1007E0000010024000127A006411000800093D0068
:1007F0002DE9F84F040070D02078C04DC00749D0D3
:100800006868C0F38100012807D06868C0F38100E0
:10081000022809D16868C00306D52868800339D545
:1008200060680028E7D035E06068B0F5803F0BD005
:1008300010B1B0F5A02F11D0286820F480302860C6
:10084000286820F4802002E0286840F48030286086
:10085000606890B1FFF77EFD06460AE0286840F424
:1008600080202860F0E700BFFFF774FD801B64283C
:1008700073D828688003F7D50CE0FFF76BFD0646B8
:1008800005E000BFFFF766FD801B6428F0D82868EC
:100890008003F7D420789A4E80074FF001094FF07B
:1008A000000839D5686810F00C0F07D06868C0F3ED
:1008B0008100022809D16868C00306D4286880072F
:1008C00014D52069012808D110E02069B0B1C6F81C
:1008D0000090FFF73FFD074605E00AE1FFF73AFD0C
:1008E000C01B0228C4D828688007F7D5286861692A
:1008F00020F0F80040EAC10028600DE0C6F8008052
:10090000FFF728FD074604E0FFF724FDC01B02287F
:1009100023D828688007F7D4207800072CD5794899
:10092000A169D9B1C0F80090FFF714FD074604E0B3
:10093000FFF710FDC01B02280FD8686A8007F7D5A3
:1009400071484FF4FA510068B0FBF1F0009000BF1D
:100950000098411E0091FAD20EE080E0C0F80080BD
:10096000FFF7F8FC074604E0FFF7F4FCC01B022881
:1009700075D8686A8007F7D42078400760D5E869A1
:100980000027C00008D4E86940F08050E861E869B9
:10099000012700F0805000905C480168C90513D41D
:1009A0000168834641F480710160FFF7D3FC824601
:1009B00006E000BFFFF7CEFCA0EB0A0064284ED88B
:1009C000DBF80000C005F5D5E06801280AD008B1C1
:1009D000052813D0286A20F001002862286A20F038
:1009E000040002E0286A40F001002862E06841F259
:1009F000883B98B1FFF7AEFC82460BE0286A40F0D6
:100A000004002862EEE700BFFFF7A4FCA0EB0A0198
:100A100059455AD8286A8007F6D50CE0FFF79AFCAA
:100A2000824605E0FFF796FCA0EB0A0159454CD839
:100A3000286A8007F6D41FB1E86920F08050E86189
:100A4000E06988B36968C1F38101022944D00228B2
:100A5000C6F8608004D0FFF77DFC044638E034E03F
:100A6000FFF778FC074604E0FFF774FCC01B022880
:100A70002BD828688001F7D4206AB0F5803F05D1D3
:100A80006868A16820F4003008436860D4E9080170
:100A90000843696821F4741108436860C6F86090DF
:100AA000FFF758FC044606E025E000BFFFF752FCC4
:100AB000001B022809D828688001F7D51BE000BF79
:100AC000FFF748FC001B022802D90320BDE8F88F7D
:100AD00028688001F4D40EE00128F7D06868226A03
:100AE00000F48031914204D1616A00F470108842B0
:100AF00001D00120EAE70020E8E7000000100240F2
:100B000000004242800442420C000020007000407D
:100B100010B5401EB0F1807F01D3012010BD4FF011
:100B2000E02460610F21601700F0F1FA0020A0615D
:100B300007202061002010BD10B590F83C20012A4C
:100B400022D0012280F83C20CA688C6822F44072CE
:100B500022434C6822F4806222430C6822F4006233
:100B600022430C6922F4805222434C6922F4005241
:100B70002243C969002322F480420A4301684A647F
:100B800080F83C30002010BD022010BD70B590F8F8
:100B90003C20012A26D0012480F83C40022280F823
:100BA0003D2003685A689D6822F070060A68324347
:100BB0005A600D4B02689A4208D0B2F1804F05D0BE
:100BC0000A4B9A4202D00A4B9A4204D1496825F056
:100BD00080031943916080F83D40002180F83C106B
:100BE000084670BD022070BD002C0140000400408A
:100BF0000008004000B585B00021009101910291EC
:100C0000039100680B49884212D10B48816941F079
:100C1000040181618069694600F0040004904FF48A
:100C2000807000900220019003900448FFF7A2FA20
:100C300005B000BD002C014000100240000801403A
:100C400070B5044690F83C0000260D4601280FD0F0
:100C5000012084F83C006AB1042A1DD0082A2FD054
:100C60000C2A3FD00126002084F83C00304670BD9D
:100C7000022070BD206800F0A7F92068816941F06A
:100C8000080181612068816921F004018161206887
:100C900081692A69114311E0206800F0BDF92068DC
:100CA000816941F4006181612068816921F480617A
:100CB0008161206881692A6941EA02218161D2E764
:100CC000206800F0D5F92068C16941F00801C161D0
:100CD0002068C16921F00401C1612068C1692A69E5
:100CE000114311E0206800F0EFF92068C16941F478
:100CF0000061C1612068C16921F48061C16120681F
:100D0000C1692A6941EA0221C161ACE710B504005A
:100D100003D094F83D0010B107E0012010BD002081
:100D200084F83C00204600F01FF8022084F83D00C3
:100D3000211D206800F00CF9012084F8460084F899
:100D40003E0084F83F0084F8400084F8410084F8B5
:100D5000420084F8430084F8440084F8450084F895
:100D60003D00002010BD000008B50068064988421B
:100D700008D10648816941F400618161806900F40D
:100D80000060009008BD0000002C014000100240EF
:100D9000FEE7000010B586B00024164801940294C6
:100DA0000394816941F020018161816901F0200192
:100DB0000491816941F004018161816901F00401BC
:100DC0000491816941F0080181618069694600F000
:100DD00008000490012000900748FFF7CBF903209A
:100DE00000900648CDE9010469460548FFF7C2F9BD
:100DF00006B010BD001002400008014000001110B4
:100E0000000C01400D4810B50B4901600C494160D0
:100E100000214FF480428160C0E903124161816189
:100E2000C1610162FFF79CFA002803D0BDE81040C1
:100E3000FFF79EB910BD00000054004010000020D4
:100E4000A086010010B592B000240F941C2108A8C0
:100E50001094FFF76EF920216846FFF76AF92048E1
:100E60001E49C0E900144FF6FF71C0E90241046158
:100E700044618461FFF74AFF08B1FFF779F90F94E5
:100E80000FA917481094FFF781FE08B1FFF770F91A
:100E90006020CDE908040A940B940C940D94002270
:100EA00008A90F480E94FFF7CBFE08B1FFF760F9D1
:100EB00000944FF40050CDE904400294019403944F
:100EC000694607480794FFF737FE08B1FFF750F966
:100ED0000348FFF78FFE12B010BD0000002C014048
:100EE00064000020FEE7FEE770477047FFF72ABB6B
:100EF00030B58FB028216846FFF71BF914210AA8E6
:100F0000FFF717F901210804CDE90010002402942D
:100F100002250491CDE907504FF4E010099068468E
:100F2000FFF766FC08B172B6FEE70F20CDE90A05AF
:100F30004FF48060CDE90C4002210AA80E94FFF71F
:100F40008BFB002801D072B6FEE70FB030BD7047B2
:100F5000F0B50268194B1A4C1A4D4FF08047984271
:100F600005D0B84203D0A04201D0A84203D122F05C
:100F700070064A683243984205D0B84203D0A04276
:100F800001D0A84203D122F44074CA6822434C69BC
:100F900022F08002224302608A68C2620A6882628A
:100FA000984201D109690163012141610169C907C1
:100FB00003D0016921F001010161F0BD002C014065
:100FC000000400400008004030B5036A026A22F0C5
:100FD000010202624268846924F073050C682C43A4
:100FE00023F002058B682B430A4DA8420BD123F056
:100FF0000805CB6822F440722B434D6923F00403AB
:1010000015438A692A4342608461496841630362E7
:1010100030BD0000002C014030B5026A036A23F0A5
:1010200010030362436884690D6824F4E64444EACB
:1010300005248D6822F0200242EA05120B4DA842D9
:101040000ED1CD6822F0800242EA05124D6923F4E8
:10105000406343EA85038D6922F0400243EA850339
:101060004360846149688163026230BD002C0140A5
:1010700030B5036A026A22F4807202624268C4696F
:1010800023F4007324F073050C682C438D6843EA45
:1010900005230C4DA8420ED1CD6823F4006343EA2A
:1010A00005234D6922F4405242EA05128D6923F46A
:1010B000806342EA05124260C4614968C163036209
:1010C00030BD0000002C014030B5046A026A22F4F1
:1010D000805202624268C3690D6823F4E64343EA22
:1010E00005238D6824F4005444EA0534064DA842D3
:1010F00004D14D6922F4804242EA85124260C36104
:1011000049680164046230BD002C0140FEE7090714
:10111000090E002804DB00F1E02080F8001470477D
:1011200000F00F0000F1E02080F8141D704702E08D
:1011300008C8121F08C1002AFAD170477047002062
:1011400001E001C1121F002AFBD17047FFF702FA2C
:10115000FFF7CEFEFFF71EFEFFF754FEFFF772FE0D
:10116000FEE7010202030405060708090A0B0C0D3D
:101170000E0F101000000000000000000102030428
:10118000060708090000000001020304AC11000872
:1011900000000020100000002E110008BC11000803
:1011A00010000020A00400003E1100080100000013
:0C11B000100000000000000000127A0097
:04000005080000ED02
:00000001FF
